:020000040800F2
:1000000008080020010100088304000871010008AD
:10001000810400086D010008E709000800000000E5
:10002000000000000000000000000000450900087A
:100030006F010008000000008D0800084709000853
:100040001B0100081B0100081B0100081B01000820
:100050001B0100081B0100081B0100081B01000810
:100060001B0100081B0100081B0100081B01000800
:100070001B0100081B0100081B0100081B010008F0
:100080001B0100081B0100081B0100081B010008E0
:100090001B0100081B0100081B0100081B010008D0
:1000A0001B0100081B0100081B0100081B010008C0
:1000B0001B0100081B0100081B0100081B010008B0
:1000C0001B0100081B0100081B0100081B010008A0
:1000D0001B0100081B0100081B0100081B01000890
:1000E0001B0100081B0100081B010008DFF80CD0F1
:1000F00000F02AF800480047090A00080808002014
:100100000648804706480047FEE7FEE7FEE7FEE7B1
:10011000FEE7FEE7FEE7FEE7FEE7FEE7E50900088B
:10012000ED000008D2B201E000F8012B491EFBD21D
:1001300070470022F6E710B513460A4604461946F2
:10014000FFF7F0FF204610BD064C074D06E0E068C3
:1001500040F0010394E8070098471034AC42F6D30E
:10016000FFF7C8FF0013000820130008FEE77047E0
:10017000FEE7024600205369926943EA024323F0F6
:100180007F42914300D1012070470000044908B527
:100190008A6902438A6189690140009108BD0000B3
:1001A00000100240F0B50A68C2F30F2595FAA5F2D7
:1001B000B2FA82F369E001229A402A4264D0082B05
:1001C00003D240F201129A4006E0A3F108024FF078
:1001D0000114944044F080624C68082C0BD10C69E7
:1001E000C668170A97FAA7F7B7FA87F726EA12261A
:1001F000BC402643C66092FAA2F700EB1264B7FA3D
:1002000087F74FEA870C0F27266807FA0CF7BE43DB
:1002100092FAA2F7D1F804E0B7FA87F7BF000EFA16
:1002200007FE46EA0E0626604F68012F01D0092F0F
:100230002AD192FAA2F7B7FA87F74FEA870C032779
:1002400007FA0CF7BE4392FAA2F7B7FA87F7D1F88C
:1002500008E0BF000EFA07FE92FAA2FC46EA0E067C
:10026000BCFA8CFC4FEA8C0E4FF0040C26600CFAA2
:100270000EFC92FAA2F2B2FA82F2CF68920026EA5B
:100280000C0697403E4326605B1C35FA03F292D180
:100290000020F0BD30B5214C4568B1FBF4F425F0E9
:1002A0003F05254345601E4DAA4207D94FF4967578
:1002B00004FB05F44FF47A75B4FBF5F4056A04F118
:1002C000010425F03F0544EA0504046213D96BB12B
:1002D00002EBC20404EB0212B1FBF2F4240508D0D5
:1002E000B1FBF2F1194341F400410FE002EB42028D
:1002F000F2E70121F6E75200B1FBF2F3C3F30B037F
:10030000042B01D2042101E0B1FBF2F1C2694CF6E9
:10031000FF739A430A43C26130BD000040420F00A0
:10032000A08601007FB5044600680D4620F001005C
:100330002060684600F02FF8D5E901232046029995
:10034000FFF7A8FF6969E868A26848F2FF339A439B
:1003500008430243A2602868216821F01A01014382
:100360002160206840F0010020602869216821F4A4
:1003700080610143216004B0002070BD4FF47A71A8
:10038000B0FBF1F14FF0E020491E41610021816195
:1003900005210161704700B5034600F0A3FA18601B
:1003A00000F076FA586000F081FA9860586800F022
:1003B0008BFAD86000BD000001490860704700005A
:1003C0000000002010B52020FFF7E0FE0420FFF71A
:1003D000DDFEBDE810400820FFF7D8BE10B58CB098
:1003E00018216846FFF7A5FE142106A8FFF7A1FE15
:1003F0001F4CA06940F00800A061A06906A900F0A8
:1004000008000B904CF2C0000690092007900320D2
:100410000890042009901748FFF7C4FEE06940F4F3
:100420000010E061E069144C00F400100B90E068EB
:1004300020F00100E060206820F04000206020688B
:1004400020F08000206000200C490290CDE90001DE
:100450000390201504900001059069462046FFF79F
:1004600061FFE06820F0FE00E0600CB010BD00000D
:1004700000100240000C014000540040400D0300F9
:10048000FEE7FEE710B50021074C0A46002004EB0A
:10049000C1131A54401CC0B28028FAD3491CC9B2F7
:1004A0000829F3D310BD000004000020F0B50B4470
:1004B00024E0044685181DE07F2C19D8002917DB9D
:1004C0003F2915DCCE1701EB56764FEAE60C0D4FAF
:1004D00026F0070607EBCC172744A1EB060E97F88A
:1004E00000C0012606FA0EF62CEA060C87F800C0BA
:1004F000641C24B2A542DFDC491C09B28B42D8DC63
:10050000F0BD00000400002000B5AE2000F000F9AE
:10051000D52000F0FDF8802000F0FAF8A82000F0C7
:10052000F7F83F2000F0F4F8D32000F0F1F80020B5
:1005300000F0EEF8402000F0EBF8A12000F0E8F821
:10054000C82000F0E5F8DA2000F0E2F8122000F010
:10055000DFF8812000F0DCF8CF2000F0D9F8D920B6
:1005600000F0D6F8F12000F0D3F8DB2000F0D0F84E
:10057000302000F0CDF8A42000F0CAF8A62000F04A
:10058000C7F88D2000F0C4F8142000F0C1F8AF20A7
:1005900000F0BEF8FFF776FF5DF804EB00F0A4B8BA
:1005A00010B50C4640F0B00000F0B2F8102040EA60
:1005B000141000F0ADF804F00F00BDE8104000F09A
:1005C000A7B8000008B5082B0DD0062B0AD10A4B9E
:1005D00002EB420203EB4202C03A009208230622D9
:1005E00000F00EF808BD054B03EB0212A2F50072F5
:1005F000102300920822F3E7AC100008BC0A0008A0
:100600002DE9F04F1F4616460D4682460024FFF79F
:100610004DFF7F1EF81707EB50700121DFF898B0EF
:1006200001EBE00743E000203DE000BF0AEB0003E0
:100630007F2B36D8E91705EB5171CA1021F007015D
:10064000691A002D03DA521E083112B209B202EB08
:100650000409B9F1070F0ED8099A04FB06F8024401
:100660000BEBC91E18F802201EF803C08A404CEAA2
:10067000020C0EF803C009F10102072A11D80BEB96
:10068000C91202EB0308099A04FB06FC024498F81D
:1006900080301CF80220C1F10801CA40134388F8D9
:1006A0008030401CC0B2B042C0D3641CE4B2A74248
:1006B000B9DCBDE8F08F0000040000202DE9F04116
:1006C0001E46154688460746002408E004FB0670CF
:1006D00000B233464146FFF775FF641CE4B22A5D61
:1006E000002AF3D1BDE8F08130B5084D0024002187
:1006F0002046FFF755FF05EBC410802100F060F89D
:10070000641CE4B2082CF2D330BD000004000020C9
:100710002DE9F041274D80460024A869C0F3400030
:100720000028FAD1286840F480702860224F42F2F5
:10073000107602E0641CB4423AD839462846FFF7E6
:1007400018FD0028F6D0286920F0FF0040F078005E
:1007500028611A4F02E0641CB44229D83946284661
:10076000FFF707FD0028F6D0286920F0FF00286178
:10077000124FBF1C02E0641CB44219D83946284607
:10078000FFF7F7FC0028F6D0296921F0FF0141EAC4
:100790000801296102E0641CB44209D839462846A0
:1007A000FFF7E7FC0028F6D0286840F400702860C6
:1007B000BDE8F08100540040010003008200070002
:1007C0002DE9F04F2E4D884683460024A869C0F3DA
:1007D00040000028FAD1286840F480702860294F32
:1007E00042F2107602E0641CB44247D839462846EB
:1007F000FFF7BFFC0028F6D0286920F0FF0040F08A
:1008000078002861204F02E0641CB44236D8394693
:100810002846FFF7AEFC0028F6D0286920F0FF003C
:1008200040F040002861184FB146BF1C02E0641C34
:100830004C4523D839462846FFF79BFC0028F6D0C4
:10084000CA460026B94613E01BF80600296921F0C4
:10085000FF0101432961574602E0641CBC420DD8E8
:1008600049462846FFF785FC0028F6D0761CF6B2EC
:100870004645E9D3286840F400702860BDE8F08F51
:100880000054004001000300820007007047000090
:1008900004494968044A01F0F0010909515CC84063
:1008A0007047000000100240E61200080449496841
:1008B000044A01F4E06102EB11210978C840704755
:1008C00000100240F612000804494968044A01F485
:1008D000605102EBD1210978C840704700100240F6
:1008E000F61200080648406810F00C01054805D0D3
:1008F000042903D0082901D100F006B87047000090
:100900000010024000127A000B48416811F4803256
:100910000A4909D0B2F5803F06D14168084AC1F3BF
:100920004041491CB2FBF1F14068022200F4701012
:1009300002EB9040484370470010024000093D0020
:1009400000127A0070477047234810B5016821F003
:10095000070141F002010160016801F0070102296D
:10096000FAD11E48016841F4803101600168C1F389
:1009700040410029FAD0416821F47C1141F4E8118A
:100980004160016841F0807101600168C1F340611C
:100990000029FAD0416821F0F0014160416821F45A
:1009A000E06141F480614160416821F4605141603F
:1009B000416821F0030141F002014160416801F00A
:1009C0000C010829FAD1064C2046FFF7D7FC204637
:1009D000BDE81040FFF7F0BC0020024000100240CC
:1009E00000A24A047047FEE702E008C8121F08C1CF
:1009F000002AFAD170477047002001E001C1121FA0
:100A0000002AFBD170470000254808B5816941F0F4
:100A100001018161816901F001010091C16941F029
:100A20008051C161C06900F0805000901D4801688C
:100A30004FF6FF0211401C4A41F44071114301601E
:100A40000068C0F30220C0F10702042A00D9042282
:100A5000011D072901D2002000E0C01E01219140A4
:100A6000491E81400801114981F8140D1048416860
:100A700021F0E06141F000714160FFF765FFFFF791
:100A8000A1FCFFF7ABFCFFF73FFDFFF7FBFC0121EB
:100A9000082308A20846FFF711FEFFF725FEFEE730
:100AA000001002400CED00E00000FA050FE000E04D
:100AB000000001404D7257656939350000000000A3
:100AC000000000000000000000000000000000F82E
:100AD00000000000000000333000000000160E008F
:100AE000160E0000000000000000000040C078402A
:100AF000C0784000043F04043F040400007088FCF8
:100B000008300000001820FF211E0000F008F0004F
:100B1000E018000000211C031E211E0000F00888C0
:100B2000700000001E212324192721100000001648
:100B30000E0000000000000000000000000000E0C7
:100B400018040200000000071820400000020418EA
:100B5000E00000000040201807000000404080F046
:100B6000804040000202010F01020200000000F07C
:100B7000000000000101011F010101000000000050
:100B80000000000000B07000000000000000000045
:100B9000000000000001010101010101000000004E
:100BA00000000000003030000000000000000000E5
:100BB00080601804006018060100000000E01008C2
:100BC0000810E000000F102020100F00001010F897
:100BD000000000000020203F2020000000700808D6
:100BE0000888700000302824222130000030088856
:100BF000884830000018202020110E000000C0207E
:100C000010F8000000070424243F240000F808889E
:100C1000880808000019212020110E0000E010882B
:100C200088180000000F112020110E00003808085D
:100C3000C83808000000003F00000000007088086D
:100C400008887000001C222121221C0000E01008EE
:100C50000810E0000000312222110F00000000C047
:100C6000C00000000000003030000000000000C0A4
:100C7000C0000000000080B0700000000000804054
:100C800020100800000102040810200040404040ED
:100C90004040400004040404040404000008102040
:100CA0004080000000201008040201000070480885
:100CB0000808F0000000003036010000C030C828ED
:100CC000E810E0000718272423140B000000C038A8
:100CD000E0000000203C23020227382008F8888822
:100CE00088700000203F202020110E00C03008082E
:100CF00008083800071820202010080008F8080805
:100D00000810E000203F202020100F0008F88888FD
:100D1000E8081000203F20202320180008F88888C9
:100D2000E8081000203F200003000000C030080841
:100D30000838000007182020221E020008F80800CA
:100D40000008F808203F210101213F20000808F891
:100D5000080800000020203F2020000000000808B4
:100D6000F8080800C08080807F00000008F888C074
:100D700028180800203F20012638200008F8080025
:100D800000000000203F20202020300008F8F8005C
:100D9000F8F80800203F003F003F200008F830C06E
:100DA0000008F808203F200007183F00E01008085E
:100DB0000810E0000F10202020100F0008F808088D
:100DC0000808F000203F210101010000E0100808A0
:100DD0000810E0000F18242438504F0008F88888C5
:100DE00088887000203F2000030C302000708808A5
:100DF000080838000038202121221C00180808F8B3
:100E0000080818000000203F2000000008F8080033
:100E10000008F808001F202020201F000878880004
:100E200000C83808000007380E010000F80800F874
:100E30000008F800033C0700073C0300081868801E
:100E40008068180820302C03032C30200838C80094
:100E5000C83808000000203F2000000010080808E3
:100E6000C83808002038262120201800000000FE85
:100E7000020202000000007F40404000000C30C031
:100E800000000000000000010638C000000202025D
:100E9000FE000000004040407F00000000201008DD
:100EA0000408102000000000000000000000000006
:100EB0000000000080808080808080800002040824
:100EC0000000000000000000000000000000808022
:100ED000808000000019242222223F2008F8008090
:100EE00080000000003F112020110E000000008053
:100EF00080800000000E11202020110000000080E2
:100F00008088F800000E112020103F200000808013
:100F100080800000001F222222221300008080F027
:100F2000888888180020203F202000000000808052
:100F300080808000006B94949493600008F8008097
:100F400080800000203F210000203F2000809898F2
:100F5000000000000020203F202000000000008052
:100F60009898000000C08080807F000008F8000092
:100F700080808000203F24022D302000000808F8E7
:100F8000000000000020203F2020000080808080A2
:100F900080808000203F20003F20003F00808000B4
:100FA0008080000000203F2100203F200000808042
:100FB00080800000001F202020201F0080800080F3
:100FC0008000000080FFA12020110E0000000080A2
:100FD00080808000000E112020A0FF808080800093
:100FE0008080800020203F212000010000008080C0
:100FF000808080000033242424241900008080E0B5
:10100000808000000000001F202000008080000081
:1010100000808000001F202020103F208080800062
:101020000080808000010E30080601008080008072
:10103000008080800F300C030C300F000080800097
:10104000808080000020312E0E31200080808000C2
:101050000080808080818E70180601000080808072
:10106000808080000021302C222130000000000010
:10107000807C020200000000003F404000000000B1
:10108000FF00000000000000FF0000000002027CE2
:10109000800000000040403F000000000080404011
:1010A000800000800000000000010100000000003E
:1010B00000000000002F00000000070007000014DF
:1010C0007F147F1400242A7F2A12002313086462ED
:1010D00000364955225000000007000000001C2285
:1010E0004100000041221C000014083E08140008C2
:1010F000083E0808000000A0600000080808080872
:10110000000060600000002010080402003E514909
:10111000453E0000427F40000042615149460021A7
:1011200041454B31001814127F10002745454539C1
:10113000003C4A494930000171090503003649491C
:10114000493600064949291E0000363600000000D5
:101150005636000000081422410000141414141420
:10116000000041221408000201510906003E4955C1
:10117000592E007C1211127C007F49494936003EED
:1011800041414122007F4141221C007F49494941A0
:10119000007F09090901003E4149497A007F08089A
:1011A000087F0000417F4100002040413F01007F57
:1011B00008142241007F40404040007F020C027F23
:1011C000007F0408107F003E4141413E007F090935
:1011D0000906003E4151215E007F0919294600465B
:1011E000494949310001017F0101003F4040403F32
:1011F000001F2040201F003F4038403F006314087C
:101200001463000708700807006151494543000056
:101210007F414100000204081020000041417F008E
:10122000000402010204004040404040000001026E
:101230000400002054545478007F48444438003857
:101240004444442000384444487F003854545418DF
:1012500000087E0901020018A4A4A47C007F0804F1
:1012600004780000447D4000004080847D00007FC1
:10127000102844000000417F4000007C04180478DE
:10128000007C0804047800384444443800FC2424DA
:1012900024180018242418FC007C080404080048C2
:1012A0005454542000043F444020003C4040207CE3
:1012B000001C2040201C003C4030403C00442810D2
:1012C0002844001CA0A0A07C004464544C440000AE
:1012D000087F41000000007F00000000417F0800FF
:1012E00000080408100800000000000000000102CF
:1012F00003040607080900000000010203040000BF
:10130000201300080000002004000000E809000885
:10131000241300080400002004080000F809000855
:0413200000127A003D
:04000005080000ED02
:00000001FF
